:0E0000000C942A000C9400000C9400000C9448
:10000E0000000C9400000C9400000C9400000C9462
:10001E0000000C9400000C9400000C9400000C9452
:10002E0000000C9400000C9400000C9400000C9442
:10003E0000000C9400000C9400000C9400000C9432
:10004E0000000C940000F894EE27ECBBF1E0FBBF2F
:10005E00EBBFE5BF8DE0A2E0BB27ED938A95E9F7F4
:10006E0080E094E0A0E6ED930197E9F7EFE5EDBFB0
:10007E00E4E0EEBFC0E6D1E00C9456001A930A936A
:10008E0000E010E0819B03C009E110E002C004E62D
:10009E0010E0D8010E946500099119910895D89831
:1000AE00E1E1EABBE0E0E1BB809B06C0D89B02C069
:1000BE00D89801C0D89AE2DFF7CFFFCF109639F06B
:1000CE0080ED97E00197F1F7A8951197C9F708957C
:00000001FF
