:100000000C945F000C9493010C949F010C940000DD
:100010000C9400000C9400000C9400000C94000060
:100020000C9400000C948C000C9400000C940000C4
:100030000C9400000C9400000C9400000C94000040
:100040000C9400000C9400000C9400000C94000030
:100050000C9400001027E80364000A00010000105F
:100060000001100001000000000000003C00202002
:10007000202020202020202020202020202000536D
:100080007465702053697A653A0080C001002D4E76
:10009000414E00494E46000006000800660001007F
:1000A0007C016C00110060016E000B0071017F008B
:1000B00002007E018A00010085018C000000F89496
:1000C000EE27ECBBF1E0FBBFEBBFE5BF8DE0A2E0AC
:1000D000BB27ED938A95E9F780E094E0A0E6ED93E5
:1000E0000197E9F7E8E9F0E085919591009761F0D3
:1000F000A591B59105901590BF01F00105900D9265
:100100000197E1F7FB01F0CFEFE5EDBFE4E0EEBFD3
:10011000C0E6D1E00C94AE010A921A92FA926A9368
:100120007A938A939A93AA93BA93EA93FA93EFB73E
:10013000EA93BB2019F0F20131962F01AA2019F0A1
:10014000F30131963F01BB2011F0AA2009F404C04D
:10015000F40131964F0102C088249924BB2049F054
:10016000AA2039F0E2E0F0E0E815F90511F4CC201E
:1001700009F405C0CC2461D1F40131964F01BB20B4
:1001800049F0AA2039F0E2E0F0E0E815F90511F4B1
:10019000CC2009F003C0E1E0CE2E3ED1CC2039F4D2
:1001A000BB2029F0E2E0F0E04E165F060CF436C00A
:1001B000DD2091F40E942903AE0FBF1FA030E2E0C2
:1001C000BE0728F40E942903EA0FFB1F02C0EFEFCD
:1001D000F1E0FBBDEABD12C00E943003DF01E8B5CB
:1001E000F9B5EA17FB0728F00E943003F9BDE8BD16
:1001F00005C0E0E0F0E0F9BDE8BDDD240E94390370
:100200000E9439030E943E030E9439030E94430367
:100210000E9439030E9453030E945803CC2039F4F2
:10022000AA2029F0E2E0F0E06E167F060CF43BC055
:10023000DD20C1F40E942903EA1BFB0BDF01EAB5B4
:10024000FBB5EA17FB0738F00E942903EA1BFB0BFA
:10025000FBBDEABD06C0E0E0F0E0FBBDEABDE1E0C9
:10026000DE2E11C00E946703AE0FBF1FA030E2E078
:10027000BE0728F40E946703EA0FFB1F02C0EFEFDE
:10028000F1E0F9BDE8BD0E9439030E9439030E94E4
:100290003E030E9439030E9443030E9439030E94D7
:1002A00053030E945803CC2039F0BB2029F0E2E030
:1002B000F0E04E165F060CF40FC0ACE7B1E0ED9134
:1002C000FD913196FE93EE930E9439030E9439030B
:1002D0000E9453030E946E03CC2039F0AA2029F01B
:1002E000E2E0F0E06E167F060CF40FC0ACE7B1E080
:1002F000ED91FD913197FE93EE930E9439030E9498
:1003000039030E9453030E946E03E991EFBFF991F4
:10031000E991B991A9919991899179916991F9900E
:10032000199009901895EA93EFB7EA93829903C060
:10033000E1E0BE2E03C044245524BB240BC0EA9345
:10034000EFB7EA93839903C0E1E0AE2E03C0AA247D
:1003500066247724E991EFBFE9911895A0E1EFD0E9
:10036000E5E0E3BFEBE8E2BFE0E0ECBFE2EAEFBDCF
:10037000E3E0EEBDE0E0EDBDECBDE7BDE6BDE0E0F5
:10038000F0E0FBBDEABDF9BDE8BDE0EBE1BB929A50
:10039000939AEBB7E06CEBBFE5E0E5BFE0E0E4BFCC
:1003A000E0ECEABFE1E0E9BF78940E9439030E94E3
:1003B0007D030E9458030E9439030E9439030E9462
:1003C0003E030E9439030E9482030BD0FFCFFFCF70
:1003D000BA93AA93E0E0EA93A98161D0A0E6B1E0E4
:1003E00008C0BA93AA93EC81EA93AB8158D0A88154
:1003F000B98194D0269608950E94EF03E797EFA95C
:10040000F8AD69AD7AAD0E94EA03DE0114960E9450
:10041000CE02FE01EB9608950E9439030E947D03EF
:100420000E946E030E9439030E9439030E943E031A
:100430000E943903A1E7B1E010C00E9439030E9475
:100440007D030E9458030E9439030E9439030E94D1
:100450003E030E9439030E948203C3DF0895AA93DA
:10046000E8B3EF70AE2FE881E07FEA2BE8BB8DE0C8
:100470008A95F1F7C29A8DE08A95F1F7C2988DE0DE
:100480008A95F1F789C0AA93A881E9DFE881E2950E
:10049000E883A881E4DF85E88A95F1F77DC0AA9317
:1004A000E881F0E0E258FE4FE081A981AE0FEBDF7A
:1004B000E981E0938201E881E09383012296089527
:1004C000A2E00E948C03ACE0DEDFA1E00E948C037E
:1004D000E0E0E0938301E09382010895AA93A8816C
:1004E000AA3031F0E0918401A0918201AE1760F052
:1004F000E0E0EA93A0918301AF5FA0938301CFDF97
:10050000A881AA3009F448C0E0918201EF5FE0932E
:100510008201C09AA881B7DFC0983EC0BA93AA935F
:100520001A93A981BA81ED91A983BA831E2FE03075
:1005300019F0A12FD3DFF5CF188123960895AA9340
:10054000E7B3E06FE7BBBA9AB89AB99AC298C09875
:10055000C198E881E0938401E058E0938001E8814C
:10056000E054E0938101A4E1B0E00E94AA030E945C
:1005700092030E9492030E949203A0E270DF88EC33
:1005800090E00197F1F7A8E27EDFA4E07CDFA5E828
:100590007ADFA6E078DF94DF21960895BA93AA93D4
:1005A00024971A930A93E0E0FAEC6AE97BE3EA8382
:1005B000FB836C837D8300E0AB85AA2372F4E8851E
:1005C000F9856A857B850E94B403E887F9876A8785
:1005D0007B870E949A03EDE2EC930E94A1030E94A4
:1005E000C1031E2F103071F4003061F4AA81BB8169
:1005F0008C819D81A130E0E0BE07E0E08E07E0E065
:100600009E0731F40E949A03E12FE05DEC9301E034
:100610000E94A1030E94E603E887F9876A877B8727
:10062000AA81BB818C819D81EAE0F0E060E070E00E
:100630000E94C103EA83FB836C837D830E94F403E1
:1006400061F6AE81BF81E0E0EC93198108812C96C0
:100650000895EAB5FBB5A0917C01B0917D010895A4
:10066000E8B5F9B5A0917C01B0917D01EA1BFB0BC7
:100670000895E0E0F0E0FA93EA930895A0E0B0E096
:100680000E94E801F6CFEAB5FBB566277727DF01C0
:10069000CB010E94FC01DF010E94F101AAE0B0E061
:1006A0000E94AA03E6CFA1E0B0E00E94E801E1CFFA
:1006B000E1E0F0E0FA93EA93E8B5F9B56627772729
:1006C000DF01CB010E94FC01DF010C94F101E8B5D0
:1006D000F9B5A0917C01B0917D010895E1E0F0E0D1
:1006E000FA93EA93A0917C01B0917D010E94BC0332
:1006F0000E94FC01DF010C94F101E1E0F0E0FA93CB
:10070000EA93BCCFEAB5FBB566277727DF01CB01BB
:100710000E94FC01DF0108950E944302A3E0B0E0C3
:100720000C94AA03A0E30E942F0288EC90E00197AA
:10073000F1F70895AE81BF811196AE83BF83119703
:100740000895EA81FB816C817D81A885B9858A85C0
:100750009B850895109639F080ED97E00197F1F7A9
:10076000A8951197C9F70895F09560957095E19552
:10077000FF4F6F4F7F4F08958B2F880F880B982F57
:1007800008953F934F935F930024112444275527E6
:1007900030E2AA0FBB1F881F991F001C111C441FA9
:1007A000551F0E1A1F0A460B570B28F40E0E1F1E5C
:1007B000461F571F01C0A1603A9559F7FD01BC01C2
:1007C000D001CA015F914F913F910895DADFFD0199
:1007D000BC0108957A936A93FA93EA9308959A93E1
:1007E0008A93BA93AA930895309760407040089511
:00000001FF
