:060000000C9450000C946A
:1000060064010C947E010C9400000C9400000C9486
:1000160000000C9400000C9400000C9400000C945A
:10002600D7000C9400000C9400000C9400000C9473
:1000360000000C9400000C9400000C9400000C943A
:1000460000000C9400000C9400000C940000102793
:10005600E80364000A00010000100001100001001E
:100066000400000000000000000001000100010083
:1000760001003F0006004000FFFFFFFFFFFFFFFFFC
:100086000A000400660007006001700005006A01AE
:100096007800080072017E000000F894EE27ECBBA1
:1000A600F1E0FBBFEBBFE5BF8DE0A2E0BB27ED9320
:1000B6008A95E9F780E094E0A0E6ED930197E9F7E9
:1000C600E6E8F0E085919591009761F0A591B591EC
:1000D60005901590BF01F00105900D920197E1F78B
:1000E600FB01F0CFEFE5EDBFE4E0EEBFC0E6D1E007
:1000F6000C94C2010E94210211E020E030E020E0D1
:1001060030E0241535059CF4F901A0E6B1E00E9423
:10011600E2010D901C90F9010E94E7010E941D0268
:10012600E015F10509F010E02F5F3F4FEACF1030E0
:1001360031F0E0917001E5BBD89AE1E07E2E0E9495
:100146002602249608951A930A9300E010E000E030
:1001560010E0041515059CF4F801A0E6B1E0EE0FD9
:10016600FF1FEA0FFB1F0F01F8010E94E7010E9423
:100176001D02D001ED93FC930F5F1F4FEACF0E9443
:10018600EA0100E010E00415150544F4F8010E94A8
:10019600E7010E94F4010F5F1F4FF5CFD89877242F
:1001A60088240991199108950A921A92FA926A93EB
:1001B6007A938A939A93AA93BA93EA93FA93EFB7A8
:1001C600EA93E2EBE2BF662019F0F50131965F0192
:1001D600992019F0F60131966F01882039F46620CE
:1001E60029F0E7E0F0E0EA15FB0509F005C00E94FA
:1001F600F9010E9401027EDF882039F4662029F089
:10020600EFE0F0E0EA15FB0509F007C00E940D02D9
:10021600E1E0F0E0ED93FC936DDF882039F0662095
:1002260029F0E7E0F0E0EA15FB0509F008C00E94B6
:10023600F9010E9401020E94160209F484DF882057
:1002460039F0662029F0EFE0F0E0EA15FB0509F049
:100256000AC00E940D02E1E0F0E0ED93FC930E94DB
:10026600160209F470DF992039F0EFE0F0E0EC15A2
:10027600FD0511F4882009F003C0E1E08E2E0CC0C4
:10028600992039F0EFE0F0E0EC15FD0511F4882037
:1002960009F402C08824D898882029F0D89B02C087
:1002A600D89801C0D89AE991EFBFF991E991B9912F
:1002B600A9919991899179916991F99019900990EB
:1002C6001895EA93EFB7EA93829B07C0882011F04E
:1002D600882011F0E1E06E2E0AC0882011F08820F7
:1002E60031F06624AA24BB24E0916E01E5BBE991B6
:1002F600EFBFE9911895AA93BA93EA93FA93EFB7E9
:10030600EA931A930A9300E010E0839B2DC088209D
:1003160091F4E1E09E2E0E94EA010415150544F4CD
:10032600F8010E94E7010E94F4010F5F1F4FF5CF0D
:10033600D898772418C08820B1F0E1E09E2ECC240E
:10034600DD24E0E0E0936801E093690100E010E05D
:100356000415150544F4F8010E94E7010E94F40112
:100366000F5F1F4FF5CF02C0839B99240991199106
:10037600E991EFBFF991E991B991A9911895E1E059
:10038600EABBE0E0E1BBEFEFE4BBE0E0E5BBE09118
:100396006E01E5BBD898E5E0E3BFE6E0E2BFE0E04A
:1003A600ECBFE1E0E9BFEBB7E06CEBBFE5E0E5BF32
:1003B600E0E0E4BFE0ECEABF7894FFCFFFCFEE0FBA
:1003C600FF1FAE0FBF1F0895A2E7B1E0F8CFAA2422
:1003D600BB24E0E0E0936801E093690100E010E0EF
:1003E6000895EFEFFFEFED93FC930895E0916A0116
:1003F600E5BBE0916801F0916901E6CFE0E0F0E04D
:10040600ED93FC93A8E6B1E0ED91FD913196FE9354
:10041600EE930895E0916C01E5BBE0916801F091DF
:1004260069013197D1CFA0916801B09169014A164F
:100436005B060895ED91FC91119708953A932A93DE
:100446001A930A9308953B812A8119810881089598
:00000001FF
