:0E0000000C943E000C9400000C9400000C9434
:10000E0000000C9400000C9471000C9400000C94F1
:10001E0000000C946B000C9400000C9400000C94E7
:10002E0000000C9400000C9400000C9400000C9442
:10003E0000000C9400000C9400000C9400000C9432
:10004E0000000C94000048656C6C6F0080C00100CD
:10005E002D4E414E00494E460000060060015400F0
:10006E00020065025A00010069025C000000F8946B
:10007E00EE27ECBBF1E0FBBFEBBFE5BF8DE0A2E0EE
:10008E00BB27ED938A95E9F780E094E0A0E6ED9327
:10009E000197E9F7E8E6F0E085919591009761F018
:1000AE00A591B59105901590BF01F00105900D92A7
:1000BE000197E1F7FB01F0CFEFE5EDBFE4E0EEBF16
:1000CE00C0E6D1E00C94BD00EA93EFB75394EFBFB6
:1000DE00E99118950A921A92FA926A937A938A93F0
:1000EE009A93AA93BA93EA93FA93EFB7EA93E7B582
:1000FE00FE2FE0E0DF01E6B5F0E0EA0FFB1F4F0157
:10010E00A52DE0E0EA9FF001E80DF91DE619F709CB
:10011E005F01D501EEEEF2E00E94E201E095E5BB53
:10012E0055243401D501EEEEF2E00E94E201E09595
:10013E00F095662777270E941E02A6E6B1E00E9480
:10014E005701E0E0EA93A0E03ED0A0E6B1E069D02E
:10015E00E991EFBFF991E991B991A991999189919D
:10016E0079916991F990199009901895EFEFE4BB88
:10017E00E0E0EFBDE2ECEEBDE4E2E9BFA0E162D06B
:10018E007894FFCFFFCFAA93E8B3EF70AE2FE8813C
:10019E00E07FEA2BE8BB8DE08A95F1F7C29A8DE0FD
:1001AE008A95F1F7C2988DE08A95F1F777C0AA93F8
:1001BE00A881E9DFE881E295E883A881E4DF85E89C
:1001CE008A95F1F76BC0AA93E881F0E0EB59FD4FE9
:1001DE00E081A981AE0FEBDF4980D8802296089589
:1001EE00A2E00E94B201ACE0E2DFA1E00E94B20107
:1001FE00E0E0DE2E4E2E0895AA93A881AA3011F0CB
:10020E004C1448F0E0E0EA93D394AD2DDCDFA881E6
:10021E00AA3009F443C04394C09AA881C8DFC0989D
:10022E003DC0BA93AA931A93A981BA81ED91A9837D
:10023E00BA831E2FE03019F0A12FDEDFF5CF188123
:10024E0023960895AA93E7B3E06FE7BBBA9AB89ADC
:10025E00B99AC298C098C198C880E881E058E093D6
:10026E006702E881E054E0936802A4E1B0E00E94E6
:10027E00D0010E94B8010E94B8010E94B801A0E20C
:10028E0082DF88EC90E00197F1F7A8E290DFA4E01E
:10029E008EDFA5E88CDFA6E08ADFA2DF2196089527
:1002AE00BA93AA9324971A930A93E0E0FAEC6AE9B8
:1002BE007BE3EA83FB836C837D8300E0AB85AA231B
:1002CE0072F4E885F9856A857B850E94DA01E887F4
:1002DE00F9876A877B870E94C001EDE2EC930E944A
:1002EE00C7010E94F5011E2F103071F4003061F429
:1002FE00AA81BB818C819D81A130E0E0BE07E0E048
:10030E008E07E0E09E0731F40E94C001E12FE05D10
:10031E00EC9301E00E94C7010E941A02E887F98758
:10032E006A877B87AA81BB818C819D81EAE0F0E0A0
:10033E0060E070E00E94F501EA83FB836C837D83AD
:10034E000E94230261F6AE81BF81E0E0EC93198139
:10035E0008812C9608950E94DE00A3E0B0E00C9474
:10036E00D001A0E30E94CA0088EC90E00197F1F75B
:10037E000895AE81BF811196AE83BF831197089504
:10038E00EA81FB816C817D81A885B9858A859B85F3
:10039E000895109639F080ED97E00197F1F7A89542
:1003AE001197C9F70895F09560957095E195FF4FF7
:1003BE006F4F7F4F08950024112490E1AA0FBB1FA9
:1003CE00001C111C0E1A1F0A18F40E0E1F1E01C05F
:1003DE00A1609A9599F7FD01D00108953F934F932F
:1003EE005F93002411244427552730E2AA0FBB1F28
:1003FE00881F991F001C111C441F551F0E1A1F0A1F
:10040E00460B570B28F40E0E1F1E461F571F01C01A
:10041E00A1603A9559F7FD01BC01D001CA015F9167
:10042E004F913F910895DADFFD01BC0108957A9353
:10043E006A93FA93EA930895309760407040089556
:00000001FF
