:020000000C945E
:10000200D7000C94D9010C94E8010C9400000C94D4
:1000120000000C9400000C9400000C9400000C945E
:1000220000000C9404010C9400000C9400000C9449
:1000320000000C9400000C9400000C9400000C943E
:1000420000000C9400000C9400000C9400000C942E
:1000520000001027E80364000A00010000100001FC
:1000620010000100FFFF0000FFFF0000FFFF600122
:100072006F017B018C01920198019E01A401AA01EA
:10008200B001B601BC012C012C012C0153686F7721
:10009200204144432056616C75650043616C69627E
:1000A200726174696F6E0053686F77204144432018
:1000B200566F6C74616765004144432031004144CE
:1000C20043203200414443203300506C6561736524
:1000D2002053656C6563740056616C75653A004324
:1000E2006F6E6669726D20546F20536176650020D1
:1000F200202020202020202020202020202020001E
:1001020080C001002D4E414E00494E4600000A00BB
:10011200040066000F0060018E000C006F019D005C
:1001220011007B01A90006002502700006008C0167
:10013200BA0006009201C00006009801C60006003F
:100142002B02760006009E01BA000600A401C00040
:100152000600AA01C6000600B001BA000600B601F8
:10016200C0000600BC01C600060031028200060083
:10017200370288000E00C201CC000700D001DA006D
:100182000E00D701CC001000E501E1000E00F501E0
:10019200CC0011000302F10011001402F100020070
:1001A2004B0202010100520204010000F894EE2702
:1001B200ECBBF1E0FBBFEBBFE5BF8DE0A2E0BB27EC
:1001C200ED938A95E9F780E094E0A0E6ED9301973C
:1001D200E9F7E0E1F1E085919591009761F0A59151
:1001E200B59105901590BF01F00105900D92019710
:1001F200E1F7FB01F0CFEFE5EDBFE4E0EEBFC0E6D3
:10020200D1E00C9406020A921A92FA926A937A93B5
:100212008A939A93AA93BA93EA93FA93EFB7EA93DB
:10022200E4E6E2BFE0914702E03021F0A5E4B2E06B
:100232000E94AB03E0914A02E03021F0A8E4B2E070
:100242000E94AB037ED1E03009F443C0F201EF3FDC
:10025200AFEFFA0781F4F30131963F01E2E0F0E0FB
:10026200E615F70514F4662477240E94B1030E9470
:10027200B60320D12EC0309779F4F50131965F0193
:10028200E2E0F0E0EA15FB0514F4AA24BB240E9484
:10029200B1030E94C1031DC0E130A0E0FA07C9F416
:1002A200A3E4B2E00E94AB03A0914302B0914402E6
:1002B20013972CF0E0E0E0934302E09344020E94A3
:1002C200B103E0914302F0914402A1E3B2E00E9443
:1002D200CD0345D1E03009F45DC0F201EF3FAFEF4D
:1002E200FA0769F423010E94D603F201A5E2B2E003
:1002F2000E94CD030E94B1030E94C1034BC03097FC
:10030200C1F4EFEFFFEFE815F90561F04F01AA2400
:10031200BB240E94DB03A2ECB1E00E94E1030E9435
:10032200B60305C045010E94D603A0EDB1E0C2D0DC
:1003320031C0E130A0E0FA0769F5EFEFFFEFEC150D
:10034200FD05F9F0F6010E94E403EA0FFB1F0F011D
:10035200F6010E94E9030E94EE03D001ED93FC93A3
:10036200EFEFFFEF6F01E0E0E0934302E09344021E
:100372000E94DB03A7EDB1E00E94E1030E94B603F5
:1003820008C0C0904302D09044020E94D603A5EE5A
:10039200B1E090D0E991EFBFF991E991B991A991BA
:1003A2009991899179916991F9901990099018958B
:1003B200EA93829B04C0E1E0E093470207C0E0E0D9
:1003C200E0934702E0934502E09346020EC0EA93AF
:1003D200839B04C0E1E0E0934A0207C0E0E0E093BF
:1003E2004A02E0934802E0934902E9911895AA93E0
:1003F200E881E7B98BE18A95F1F7369A349BFECF13
:10040200349AE4B1F5B10C947B03B7D00E94D603C1
:10041200A5EFB1E00E94E1030E94B6034BD07894AD
:10042200F201309741F4EFEFFFEFE815F90511F013
:10043200D4010ED00BC0E130A0E0FA0739F4EFEF9F
:10044200FFEFEC15FD0511F0D60102D0E9CFFFCF89
:10045200BA93AA932597E0E0EA93A1E0CED0A3E075
:10046200B2E00AD1ED81FE810E94E903EA0FFB1F8F
:10047200FF93EF93AD81BBDFAF91BF91ED93FC93FF
:10048200ED81FE810E94E9030E94EE03FA93EA9352
:10049200DE0112960E947D030E94B103DE011296D4
:1004A20009D0AD81BE8118D0AAE0B0E00E940B0451
:1004B20027960895BA93AA93E0E0EA93AB819DD080
:1004C200A4E1B2E0D9D0E0E0EA93AB8196D0A88172
:1004D200B981D2D024960895BA93AA93E881F9817A
:1004E200309769F40E94F3030E94F6030E94EE0320
:1004F200E015F10514F4A89A01C0A89821C0E130D2
:10050200A0E0FA0769F40E94F3030E94F6030E9436
:10051200EE03E015F10514F4A99A01C0A99810C0E0
:10052200E230A0E0FA0761F40E94F3030E94F603AE
:100532000E94EE03E015F10514F4AA9A01C0AA98EC
:100542006BC0E0914702E03041F0A0914502B091CA
:100552004602549711F4E1E001C0E0E00895E09111
:100562004A02E03041F0A0914802B091490254970A
:1005720011F4E1E001C0E0E00895EFEFE4BBE0E850
:10058200E1BBE2BB909AE0E0E7B9E6E8E6B9E0E079
:10059200E0BFEBB7E06CEBBFE5E0E5BFE0E0E4BF56
:1005A200E0ECEABFE4E0E3BFE4E6E2BFE0E0ECBF98
:1005B200E1E0E9BFA0E171D00895AA93E8B3EF703A
:1005C200AE2FE881E07FEA2BE8BB8DE08A95F1F758
:1005D200C29A8DE08A95F1F7C2988DE08A95F1F77B
:1005E20089C0AA93A881E9DFE881E295E883A8811E
:1005F200E4DF85E88A95F1F77DC0AA93E881F0E00F
:10060200E55BFD4FE081A981AE0FEBDFE981E0936D
:100612004F02E881E093500222960895A2E00E94E0
:10062200FD03ACE0DEDFA1E00E94FD03E0E0E09329
:100632005002E0934F020895AA93A881AA3031F0A4
:10064200E0915102A0914F02AE1760F0E0E0EA9310
:10065200A0915002AF5FA0935002CFDFA881AA30D1
:1006620009F448C0E0914F02EF5FE0934F02C09A55
:10067200A881B7DFC0983EC0BA93AA931A93A98102
:10068200BA81ED91A983BA831E2FE03019F0A12F10
:10069200D3DFF5CF188123960895AA93E7B3E06FCD
:1006A200E7BBBA9AB89AB99AC298C098C198E88139
:1006B200E0935102E058E0934D02E881E054E09368
:1006C2004E02A4E1B0E00E940B040E9403040E94C7
:1006D20003040E940304A0E270DF88EC90E001971B
:1006E200F1F7A8E27EDFA4E07CDFA5E87ADFA6E0EE
:1006F20078DF94DF21960895BA93AA93A991B991CC
:10070200E991F99130962AF4E095F09531966DE2EF
:100712006D93E89480E197E20DD088EE93E00AD0E1
:1007220084E6992707D08AE005D06E2F10D066277D
:100732006C9308956627E817F90720F06395E81B84
:10074200F90BC9F7662311F416F008956894605DF9
:100752006D930895ED91FD913196FE93EE93089578
:10076200E1E0F0E0FA93EA930895F301A5E2B2E042
:10077200EE0FFF1FAE0FBF1F0E941504DF01089589
:10078200F501ABE2B2E0EE0FFF1FAE0FBF1F0E94FA
:100792001504DF010C945B02EE0FFF1FAE0FBF1FAB
:1007A2000E941504DF010C945B02E0E0F0E0FA9392
:1007B200EA930895EFEFFFEF2F0166247724F5CF38
:1007C2000E945B02CDCFA7E3B2E0EE0FFF1F0895B8
:1007D200ADE3B2E0EE0FFF1F0895AE0FBF1F0E9400
:1007E20015040895E881F981F3CFAE0FBF1F0D9074
:1007F2001C90E881F981E7CF0E94F202A3E0B0E009
:100802000C940B04A0E30E94DE0288EC90E00197B6
:10081200F1F70895109639F080ED97E00197F1F71E
:10082200A8951197C9F70895ED91FC911197089534
:00000001FF
