:020000000C945E
:1000020032000C945F000C948D000C9400000C9450
:1000120000000C9400000C9400000C9400000C945E
:1000220000000C9400000C9400000C9400000C944E
:1000320000000C9400000C9400000C9400000C943E
:1000420000000C9400000C9400000C9400000C942E
:1000520000003F0006005B004F00070060015400F3
:100062000000F894EE27ECBBF1E0FBBFEBBFE5BF6D
:100072008DE0A2E0BB27ED938A95E9F780E094E05A
:10008200A0E6ED930197E9F7ECE5F0E08591959113
:10009200009761F0A591B59105901590BF01F0010F
:1000A20005900D920197E1F7FB01F0CFEFE5EDBF6F
:1000B200E4E0EEBFC0E6D1E00C94E800AA93EA9334
:1000C200EFB7EA93A0E08299A1E0E1E0EA2711F418
:1000D200829801C0829A829B02C0839901C003C0A8
:1000E200E091660117C0829B02C0839B01C003C0DE
:1000F200E09164010FC0829902C0839901C003C0DC
:10010200E091620107C0829902C0839B01C003C0D3
:10011200E0916001E5BB2DC0AA93EA93EFB7EA93A1
:10012200A0E08399A1E0E1E0EA2711F4839801C0FD
:10013200839A829B02C0839901C003C0E091660149
:1001420017C0829B02C0839B01C003C0E09164017F
:100152000FC0829902C0839901C003C0E09162017D
:1001620007C0829902C0839B01C003C0E091600175
:10017200E5BBE991EFBFE991A99118951A930A930A
:1001820000E010E0829B02C0839901C003C009E134
:1001920010E017C0829B02C0839B01C003C001E232
:1001A20010E00FC0829902C0839901C003C002E32C
:1001B20010E007C0829902C0839B01C002C004E61E
:1001C20010E0D8010E940701099119910895D89869
:1001D200E0E0E2BBEFEFEABBE0E0E1BBEFEFE4BB64
:1001E20082988398EBB7E06CEBBFE5E0E5BFE0E017
:1001F200E4BFE0ECEABF7894809B06C0D89B02C0C3
:10020200D89801C0D89ABADFF7CFFFCF109639F04D
:1002120080ED97E00197F1F7A8951197C9F7089536
:00000001FF
