:020000000C945E
:100002002A000C9400000C9400000C9400000C9444
:1000120000000C9400000C9400000C9400000C945E
:1000220000000C9400000C9400000C9400000C944E
:1000320000000C9400000C9400000C9400000C943E
:1000420000000C9400000C9400000C9400000C942E
:100052000000F894EE27ECBBF1E0FBBFEBBFE5BF7D
:100062008DE0A2E0BB27ED938A95E9F780E094E06A
:10007200A0E6ED930197E9F7EFE5EDBFE4E0EEBF0F
:10008200C0E6D1E00C946E001A930A9300E010E0EF
:10009200819B02C0829901C003C009E110E017C030
:1000A200819B02C0829B01C003C001E210E00FC02D
:1000B200819902C0829901C003C002E310E007C027
:1000C200819902C0829B01C002C004E610E0D801FF
:1000D2000E947F00099119910895D898E0E0E2BB4F
:1000E200E1E1EABBE0E0E1BB809B06C0D89B02C035
:1000F200D89801C0D89AC8DFF7CFFFCF109639F051
:1001020080ED97E00197F1F7A8951197C9F7089547
:00000001FF
