:040000000C9450000C
:100004000C946D010C949B010C9400000C94000062
:100014000C9400000C9400000C9400000C9400005C
:100024000C94D9000C9400000C9400000C94000073
:100034000C9400000C9400000C9400000C9400003C
:100044000C9400000C9400000C9400000C9400002C
:100054001027E80364000A000100001000011000EA
:100064000100040000000000000000000100010085
:10007400010001003F0006004000FFFFFFFFFFFFFB
:10008400FFFF0A000400660007006001700005001D
:100094006D017800080075017E000000F894EE27D9
:1000A400ECBBF1E0FBBFEBBFE5BF8DE0A2E0BB27FB
:1000B400ED938A95E9F780E094E0A0E6ED9301974B
:1000C400E9F7E6E8F0E085919591009761F0A59154
:1000D400B59105901590BF01F00105900D9201971F
:1000E400E1F7FB01F0CFEFE5EDBFE4E0EEBFC0E6E2
:1000F400D1E00C94E6010E94700211E020E030E0AF
:1001040020E030E0241535059CF4F901A0E6B1E0C7
:100114000E9408020D901C90F9010E940D020E9499
:100124006C02E015F10509F010E02F5F3F4FEACFB4
:10013400103031F0E0917301E5BBD89AE1E07E2EF6
:100144000E947502249608951A930A9300E010E021
:1001540000E010E0041515059CF4F801A0E6B1E0F8
:10016400EE0FFF1FEA0FFB1F0F01F8010E940D02A3
:100174000E946C02D001ED93FC930F5F1F4FEACFF6
:100184000E94100200E010E00415150544F4F80183
:100194000E940D020E941A020F5F1F4FF5CFD898DC
:1001A4007724E0E0E0936A010991199108950E948F
:1001B4001F02E2EBE2BF662019F0F60131966F01EF
:1001C400992021F0A8E6B1E00E942D02E0916A0195
:1001D400E03029F4662019F00E94330209F006C0C9
:1001E4000E9438020E9440020E944702E0916A0184
:1001F400E03039F4662029F0E6E1F0E0EC15FD0585
:1002040009F008C00E944F02E1E0F0E0ED93FC9396
:100214000E944702E0916A01E03029F0662019F05B
:100224000E94330209F006C00E9438020E94400274
:100234000E945802E0916A01E03039F0662029F00A
:10024400E6E1F0E0EC15FD0509F00CC00E944F0258
:10025400E1E0F0E0ED93FC930E9458020E945F02FB
:1002640009F472DF992051F0A0916801B0916901FD
:100274001F9721F4E0916A01E03009F004C0E1E045
:10028400E0936A0113C0992051F0A0916801B091E4
:1002940069011F9721F4E0916A01E03009F406C076
:1002A400E0E0E0936A010E946602D898E0916A0156
:1002B400E03029F0D89B02C0D89801C0D89A882091
:1002C40021F000240A140B040CF004C0C098F501BA
:1002D40031975F0120C00E941F02829B09C0E091F8
:1002E4006A01E03011F0E03011F0E1E06E2E13C04D
:1002F400E0916A01E03049F0E03069F00E94330295
:1003040024F40E945F0209F41FDF6624CC24DD2458
:10031400E0917101E5BBE991EFBFF991E991B991E0
:10032400A9919991899179916991F990199009907C
:100334001895AA93BA93EA93FA93EFB7EA931A93A8
:100344000A9300E010E0839B31C0E0916A01E03041
:1003540091F4E1E09E2E0E9410020415150544F468
:10036400F8010E940D020E941A020F5F1F4FF5CF81
:10037400D89877241AC0E0916A01E030B1F0E1E046
:100384009E2E0E946602E0E0E0936B01E0936C0114
:1003940000E010E00415150544F4F8010E940D0274
:1003A4000E941A020F5F1F4FF5CF05C0839903C047
:1003B40099240E94660209911991E991EFBFF9917C
:1003C400E991B991A9911895E1E0EABBE7BBE0E0B6
:1003D400E1BBEFEFE4BBE0E0E5BBE0917101E5BB1D
:1003E400D898C098E5E0E3BFE6E0E2BFE0E0ECBF08
:1003F400E1E0E9BFEBB7E06CEBBFE5E0E5BFE0E0CF
:10040400E4BFE0ECEABF7894FFCFFFCFEE0FFF1F0D
:10041400AE0FBF1F0895A5E7B1E0F8CFCC24DD24CB
:10042400E0E0E0936B01E0936C0100E010E00895DC
:10043400EFEFFFEFED93FC9308950A921A92FA926C
:100444006A937A938A939A93AA93BA93EA93FA93C0
:10045400EFB7EA930895ED91FD913196FE93EE93F3
:100464000895EDE0F0E0EC15FD050895E0916D01CF
:10047400E5BBE0916B01F0916C01CDCFE0E0F0E0E1
:10048400ED93FC93ABE6B1E0E6CFC09AE1E08E2EAB
:10049400E1E0F0E05F010C947D00E0916F01E5BBC9
:1004A400E0916B01F0916C013197B5CFC09AE1E016
:1004B4008E2EE1E0F0E05F010895A0916B01B09110
:1004C4006C014A165B060895E0E0E0936801E0934E
:1004D40069010895ED91FC91119708953A932A9337
:1004E4001A930A9308953B812A81198108810895FA
:00000001FF
