:080000000C9459000C9400005F
:100008000C9400000C9400000C9400000C949600D2
:100018000C9400000C9400000C9486000C940000D2
:100028000C9400000C9400000C9400000C94000048
:100038000C9400000C9400000C9400000C94000038
:100048000C9400000C9400000C9400001027E803A6
:1000580064000A00010000100001100001003F00C8
:1000680006005B004F0066006D00FD000700FF0002
:100078006F004672657175656E63793A2000256474
:10008800000080C001002D4E414E00494E46000040
:100098001300730266000C0060017A0002008902F6
:1000A8008A00010090028C000000F894EE27ECBB57
:1000B800F1E0FBBFEBBFE5BF8DE0A2E0BB27ED930E
:1000C8008A95E9F780E094E0A0E6ED930197E9F7D7
:1000D800E8E9F0E085919591009761F0A591B591D7
:1000E80005901590BF01F00105900D920197E1F779
:1000F800FB01F0CFEFE5EDBFE4E0EEBFC0E6D1E0F5
:100108000C94E300EA93FA93EFB7EA93E8EDEDBDB8
:10011800E0EFECBDF30131963F01E991EFBFF991B2
:10012800E99118950A921A926A937A938A939A9304
:10013800AA93BA93EA93FA93EFB7EA93E7B5FE2F37
:10014800E0E0DF01E6B5F0E0EA0FFB1F0E944B0498
:10015800E0936B02F0936C0260936D0270936E02F1
:10016800A0916B02B0916C0280916D0290916E0229
:10017800EAE0F0E060E070E00E947D04A3E7B2E00E
:10018800EE0FFF1FAE0FBF1FEC91E5BBE2E9F0EAEF
:1001980060E070E0E0936F02F09370026093710288
:1001A80070937202E991EFBFF991E991B991A99120
:1001B8009991899179916991199009901895EFEF22
:1001C800E4BBE0E0EFBDE1E4EEBDE0E0EDBDECBD99
:1001D800E7BDE6BDEBBDEABDE9BDE8BDE4E2E9BFC8
:1001E800A0E1A8D0E0E0EA93A0E00E94E503A0E641
:1001F800B1E00E94EB037894E0918702E5BBE0E070
:10020800EA93A1E00E94E503E0916F02F091700289
:1002180060917102709172020E948504ACE6B1E0AF
:100228000E946703ECE6F1E0FA93EA93E6E8F0E06F
:10023800FA93EA93EFE6F2E0662777270E948504AF
:1002480084E00E943C032896ACE6B1E00E94EB03F0
:10025800D6CFFFCFAA93E8B3EF70AE2FE881E07F47
:10026800EA2BE8BB8DE08A95F1F7C29A8DE08A9572
:10027800F1F7C2988DE08A95F1F789C0AA93A88111
:10028800E9DFE881E295E883A881E4DF85E88A95DB
:10029800F1F77DC0AA93E881F0E0E757FD4FE081D0
:1002A800A981AE0FEBDFE981E0938D02E881E0934D
:1002B8008E0222960895A2E00E94F103ACE0DEDFF0
:1002C800A1E00E94F103E0E0E0938E02E0938D024A
:1002D8000895AA93A881AA3031F0E0918F02A091E5
:1002E8008D02AE1760F0E0E0EA93A0918E02AF5F56
:1002F800A0938E02CFDFA881AA3009F448C0E0910C
:100308008D02EF5FE0938D02C09AA881B7DFC09895
:100318003EC0BA93AA931A93A981BA81ED91A98391
:10032800BA831E2FE03019F0A12FD3DFF5CF188143
:1003380023960895AA93E7B3E06FE7BBBA9AB89AF1
:10034800B99AC298C098C198E881E0938F02E058A2
:10035800E0938B02E881E054E0938C02A4E1B0E0E2
:100368000E9431040E94F7030E94F7030E94F703DA
:10037800A0E270DF88EC90E00197F1F7A8E27EDF59
:10038800A4E07CDFA5E87ADFA6E078DF94DF219699
:100398000895BA93AA931A93A981BA81E0E0EC93DD
:1003A800AB81BC81EC911E2FE03019F0E0E0EC93BA
:1003B80019C0A981BA8111960E948104309789F0E9
:1003C800E981FA81A181B281EC911E2FE03041F0E0
:1003D800A981BA811196ED91FD913196FE93EE9324
:1003E80001C010E0E12F188125960895FF92BA9375
:1003F800AA9324970E948E04E0E0F0E0E887F9874A
:100408004E2FE889F9893196E88BF98B3197E49179
:100418003E2FE03009F425C10E94FF03C1F0EDB77B
:10042800FEB7FA93EA934F930E9404044F913E2F2C
:10043800E03019F00E94FF0309F407C00E940A0483
:100448001CF4EFEFFFEF0FC1EACF432F09C135329C
:1004580009F0EEC050E0E889F9893591E88BF98B0D
:10046800303310F03A3308F007C0AAE05A9F502DF5
:10047800E32FE0535E0FEFCF303009F4F2C0EDB751
:10048800FEB7FA93EA934F930E9404044F912E2FDC
:10049800AE2F0E94CB03E03039F00E940A041CF40E
:1004A800EFEFFFEFE0C0EBCF203009F4D1C0422FCF
:1004B800503009F45FEFE32FE33699F40E940F04FC
:1004C800EDB7FEB7FA93EA934F930E9404044F9155
:1004D800D801EC930E940A041CF4EFEFFFEFC3C0AD
:1004E800A1C0E33741F50E940F04E52F5150E030D9
:1004F800F1F0EDB7FEB7FA93EA934F930E94040424
:100508004F913E2FE03019F00E94FF0339F00E940E
:100518000A041CF4EFEFFFEFA6C009C01F930F9366
:100528000F5F1F4FE32FAF91BF91EC93DECFD80140
:10053800E0E0EC9377C06894F1F8E894F2F8E32FE0
:10054800E43611F0E93619F4E894F1F802C0E53719
:1005580011F42AE008C0E83711F420E104C0E532BC
:1005680009F466C07EC0E0E0EE83EF836894F0F89B
:10057800E52F5150E03009F446C0EDB7FEB7FA93C5
:10058800EA934F930E9404044F913E2FE13238F4CE
:100598000E940A041CF4EFEFFFEF65C017C0F1FCDE
:1005A80008C06894F1F83D3211F4F2F8E1CF3B321B
:1005B800F9F2203131F4A32F0E94D603E03031F054
:1005C80009C0A32F0E94C203E03021F4F0FC49C007
:1005D800432F19C0313610F0375505C0313410F0AB
:1005E800375301C03053E22FAE81BF81F0E00E9443
:1005F8005004DF01E32FF0E0EA0FFB1FEE83FF83D7
:10060800E894F0F8B5CF0E940F04F2FE06C0EE8120
:10061800FF810E943F04EE83FF83EE81FF81D801B2
:10062800ED93FC93E885F9853196E887F98718C03A
:10063800EDB7FEB7FA93EA934F930E9404044F91E3
:10064800E31771F00E940A041CF4EFEFFFEF0BC0F0
:10065800E885F985309719F4EFEFFFEF04C001C082
:10066800D0CEE885F9850E9495046296FF9008959A
:10067800FF92F82E23971A930A930E941A04309730
:1006880019F4EFEFFFEF1AC0DE0111960E943B0448
:100698008D010E941A04EB83FC83DE0115960E94EB
:1006A8003B040E948104FA93EA931A930A93EDECAF
:1006B800F1E0FA93EA93DE01189698DE1981088131
:1006C8002596FF900895BA93AA9324971A930A93AC
:1006D800E0E0FAEC6AE97BE3EA83FB836C837D83E1
:1006E80000E0AB85AA2372F4E885F9856A857B85E5
:1006F8000E944304E887F9876A877B870E94210460
:10070800EDE2EC930E9428040E9458041E2F10303A
:1007180071F4003061F4AA81BB818C819D81A13084
:10072800E0E0BE07E0E08E07E0E09E0731F40E94BB
:100738002104E12FE05DEC9301E00E9428040E946F
:100748007D04E887F9876A877B87AA81BB818C81CA
:100758009D81EAE0F0E060E070E00E945804EA83DE
:10076800FB836C837D830E948A0461F6AE81BF811E
:10077800E0E0EC93198108812C960895AA93E1E0B2
:10078800F991F03310F0FA3308F0EE270895AA93A0
:10079800E1E0F991F03229F0F93010F0FE3008F07C
:1007A800EE270895AA93E1E0F991F05340F0FA306A
:1007B80038F0FF75F750FA3010F0F03108F0EE27F6
:1007C80008950E944E01A2E3B0E00C9431040E9407
:1007D8008D01A2E3B0E00C9431040E944201A3E031
:1007E800B0E00C943104A0E30E942E0188EC90E064
:1007F8000197F1F70895A32F0E94CB03E0300895E5
:10080800AC85BD85EE85FF8509950895AA85BB85CC
:10081800AC91A0300895EE85FF853497EE87FF8769
:10082800AE85BF8514960D911C910895DE0117962B
:100838000E943B040E9481040895AE81BF811196F5
:10084800AE83BF8311970895EA81FB816C817D8116
:10085800A885B9858A859B850895109639F080ED1D
:1008680097E00197F1F7A8951197C9F70895002423
:10087800AF0DB01D0895F195E195F0400895F095FC
:1008880060957095E195FF4F6F4F7F4F08956F2FDB
:10089800660F660B762F0895FA9FF02DEB9FF00DEB
:1008A800EA9FE02DF10D08953F934F935F93002445
:1008B80011244427552730E2AA0FBB1F881F991F10
:1008C800001C111C441F551F0E1A1F0A460B570BFC
:1008D80028F40E0E1F1E461F571F01C0A1603A952F
:1008E80059F7FD01BC01D001CA015F914F913F91B9
:1008F8000895DADFFD01BC010895ED91FC9111978F
:1009080008957A936A93FA93EA930895309760402A
:10091800704008955A934A933A932A931A930A93E4
:1009280008955D814C813B812A8119810881089550
:00000001FF
