:020000000C945E
:100002004F000C94F0000C9402010C9400000C942C
:1000120000000C9400000C9400000C9400000C945E
:1000220000000C94A3000C9400000C9400000C94AB
:1000320000000C9400000C9400000C9400000C943E
:1000420000000C9400000C9400000C9400000C942E
:1000520000001027E80364000A00010000100001FC
:100062001000010004000000000000000100010077
:10007200010001003F0006004000FFFFFFFFFFFFFD
:10008200FFFF080004006600070060016E00050023
:1000920068017600080070017C000000F894EE27E9
:1000A200ECBBF1E0FBBFEBBFE5BF8DE0A2E0BB27FD
:1000B200ED938A95E9F780E094E0A0E6ED9301974D
:1000C200E9F7E4E8F0E085919591009761F0A59158
:1000D200B59105901590BF01F00105900D92019721
:1000E200E1F7FB01F0CFEFE5EDBFE4E0EEBFC0E6E4
:1000F200D1E00C942B010E94570111E020E030E086
:1001020020E030E0241535059CF4F901A0E6B1E0C9
:100112000E944B010D901C90F9010E9450010E9417
:100122005301E015F10509F010E02F5F3F4FEACFD0
:10013200103021F0E0916E01E5BBD89A0E945C017B
:10014200249608950A921A92FA926A937A938A935B
:100152009A93AA93BA93EA93FA93EFB7EA93E2EBEC
:10016200E2BF7094662019F0F40131964F016620C7
:1001720029F0E7E0F0E0E815F90509F00EC0E0919A
:100182006801E5BBF5010E945001E0E0F0E0ED936B
:10019200FC93F50131965F01AEDF662029F0EFE0B6
:1001A200F0E0E815F90509F00CC0E0916A01E5BB41
:1001B200F50131970E945001E1E0F0E0ED93FC93EC
:1001C2009ADFE991EFBFF991E991B991A9919991DA
:1001D200899179916991F990199009901895EA930A
:1001E200EFB7EA93829B03C0E1E06E2E06C066245D
:1001F20088249924E0916C01E5BBE991EFBFE99174
:100202001895AA93BA93EA93FA93EFB7EA931A93DB
:100212000A9300E010E0839B14C088249924AA2446
:10022200BB2400E010E00415150554F4F8010E9407
:100232005001EFEFFFEFED93FC930F5F1F4FF3CFF2
:10024200D89809911991E991EFBFF991E991B99182
:10025200A9911895E1E0EABBE0E0E1BBEFEFE4BB76
:10026200E0E0E5BBE0916C01E5BBD898E5E0E3BFD7
:10027200E6E0E2BFE0E0ECBFE1E0E9BFEBB7E06C53
:10028200EBBFE5E0E5BFE0E0E4BFE0ECEABF789475
:10029200FFCFFFCFEE0FFF1FAE0FBF1F0895A0E7E6
:1002A200B1E0F8CFED91FC91119708953A932A931A
:1002B2001A930A9308953B812A811981088108952E
:00000001FF
